:020000040000FA
:10C000003DB8F39600000000000200007C870000AD
:10C010000000000000000000000000000000000020
:10C02000FFFFFFFFFFFFFFFFFFFFFFFFFFFFFFFF20
:10C03000FFFFFFFFFFFFFFFFFFFFFFFFFFFFFFFF10
:10C04000FFFFFFFFFFFFFFFFFFFFFFFFFFFFFFFF00
:10C05000FFFFFFFFFFFFFFFFFFFFFFFFFFFFFFFFF0
:10C06000FFFFFFFFFFFFFFFFFFFFFFFFFFFFFFFFE0
:10C07000FFFFFFFFFFFFFFFFFFFFFFFFFFFFFFFFD0
:10C08000FFFFFFFFFFFFFFFFFFFFFFFFFFFFFFFFC0
:10C09000FFFFFFFFFFFFFFFFFFFFFFFFFFFFFFFFB0
:10C0A000FFFFFFFFFFFFFFFFFFFFFFFFFFFFFFFFA0
:10C0B000FFFFFFFFFFFFFFFFFFFFFFFFFFFFFFFF90
:10C0C000FFFFFFFFFFFFFFFFFFFFFFFFFFFFFFFF80
:10C0D000FFFFFFFFFFFFFFFFFFFFFFFFFFFFFFFF70
:10C0E000FFFFFFFFFFFFFFFFFFFFFFFFFFFFFFFF60
:10C0F000FFFFFFFFFFFFFFFFFFFFFFFFFFFFFFFF50
:10C10000FFFFFFFFFFFFFFFFFFFFFFFFFFFFFFFF3F
:10C11000FFFFFFFFFFFFFFFFFFFFFFFFFFFFFFFF2F
:10C12000FFFFFFFFFFFFFFFFFFFFFFFFFFFFFFFF1F
:10C13000FFFFFFFFFFFFFFFFFFFFFFFFFFFFFFFF0F
:10C14000FFFFFFFFFFFFFFFFFFFFFFFFFFFFFFFFFF
:10C15000FFFFFFFFFFFFFFFFFFFFFFFFFFFFFFFFEF
:10C16000FFFFFFFFFFFFFFFFFFFFFFFFFFFFFFFFDF
:10C17000FFFFFFFFFFFFFFFFFFFFFFFFFFFFFFFFCF
:10C18000FFFFFFFFFFFFFFFFFFFFFFFFFFFFFFFFBF
:10C19000FFFFFFFFFFFFFFFFFFFFFFFFFFFFFFFFAF
:10C1A000FFFFFFFFFFFFFFFFFFFFFFFFFFFFFFFF9F
:10C1B000FFFFFFFFFFFFFFFFFFFFFFFFFFFFFFFF8F
:10C1C000FFFFFFFFFFFFFFFFFFFFFFFFFFFFFFFF7F
:10C1D000FFFFFFFFFFFFFFFFFFFFFFFFFFFFFFFF6F
:10C1E000FFFFFFFFFFFFFFFFFFFFFFFFFFFFFFFF5F
:10C1F000FFFFFFFFFFFFFFFFFFFFFFFFFFFFFFFF4F
:10C20000401E002099D800001522010051D80000DE
:10C2100051D8000051D8000051D8000000000000A3
:10C22000000000000000000000000000ADD400008D
:10C2300051D800000000000055D4000051D8000083
:10C2400085D5000085D5000085D5000085D5000086
:10C2500085D5000085D5000085D5000085D5000076
:10C2600085D5000085D5000085D5000085D5000066
:10C2700085D5000085D5000085D5000085D5000056
:10C2800085D5000085D5000085D5000085D5000046
:10C2900085D5000085D5000085D5000085D5000036
:10C2A00085D5000085D5000085D5000085D5000026
:10C2B00085D5000085D5000085D5000085D5000016
:10C2C00085D5000085D5000085D5000085D5000006
:10C2D00085D5000085D5000085D5000085D50000F6
:10C2E00085D5000085D5000085D5000085D50000E6
:10C2F00085D5000085D5000085D5000085D50000D6
:10C3000053B94AB9002908BF00281CBF4FF0FF31BC
:10C310004FF0FF3000F00CB8ADF1080C6DE904CE21
:10C3200000F008F8DDF804E0DDE9022304B070470E
:10C33000704700BF2DE9F04786468C460846089EA8
:10C34000154674461946002B40F0C2808542B2FA69
:10C3500082F245D94AB1C2F1200300FA02FC2EFA5A
:10C3600003F3954043EA0C0C94404FEA154EA8B2F3
:10C37000BCFBFEF8230C0EFB18CC08FB00F943EACB
:10C380000C43994528D9EB1808F1FF3704D2994599
:10C3900002D9A8F102072B44A3EB0903A4B2B3FB13
:10C3A000FEFC0EFB1C330CFB00F044EA0344A042ED
:10C3B00014D92C190CF1FF3304D2A04202D9ACF1EC
:10C3C00002032C44241A43EA07401EB1D440002340
:10C3D00034607360BDE8F0874746DDE76346F1E708
:10C3E00092BB431B01214FEA154EAFB2B3FBFEFCDB
:10C3F000200C0EFB1C330CFB07F840EA0343984566
:10C4000062D9EB180CF1FF3004D2984502D9ACF197
:10C4100002002B44A3EB0803A4B2B3FBFEFC0EFB0B
:10C420001C330CFB07F744EA0344A7424ED92C19EE
:10C430000CF1FF3304D2A74202D9ACF102032C4421
:10C44000E41B43EA0040C0E7C2F1200320FA03F1F5
:10C45000954090402EFA03F303434FEA154EAFB2D6
:10C46000B1FBFEFC0EFB1C10190C0CFB07F841EA9B
:10C470000041884504FA02F422D969180CF1FF3012
:10C4800004D2884502D9ACF102002944A1EB08018D
:10C490009BB2B1FBFEFC0EFB1C110CFB07F743EA41
:10C4A00001439F420ED9EB180CF1FF3104D29F4299
:10C4B00002D9ACF102012B44DB1B41EA004192E7B7
:10C4C0006046E3E76146F7E76046A3E76346B7E700
:10C4D000834206D916B9002108467BE7C6E900E089
:10C4E000F9E7B3FA83F78FB9834201D3724508D8CD
:10C4F000BEEB020460EB030301209C461EB9002141
:10C5000068E73846FAE7C6E9004CF8E7C7F1200CBF
:10C51000BB4022FA0CF41C432EFA0CF120FA0CF367
:10C52000B84001434FEA14490EFA07F5B3FBF9F896
:10C530001FFA84FE09FB18300B0C08FB0EFA43EAC5
:10C5400000439A4502FA07F240D9E31808F1FF3098
:10C5500004D29A4502D9A8F102002344A3EB0A03AE
:10C5600089B2B3FBF9F809FB183308FB0EFE41EA68
:10C5700003418E452CD9611808F1FF3304D28E4552
:10C5800002D9A8F10203214443EA0040A0FB02982B
:10C59000A1EB0E014145CE46434602D306D14D459F
:10C5A00004D2B9EB020E68EB04030138002EA6D0CA
:10C5B000B5EB0E0261EB030101FA0CFC22FA07F362
:10C5C0004CEA0303F940C6E9003198E74046C5E765
:10C5D0004346D9E708B505F08FFF011E03DB044889
:10C5E00005F0B6F908BD034805F0B2F9F7E700BF5A
:10C5F000EC420100C842010008B5024B1B68984795
:10C6000008BD00BF00000020014B1860704700BF4C
:10C610000000002000B583B002460B4600210091C7
:10C62000024800F01DF903B05DF804FBF9C50000F5
:10C630002DE9F04383B0044608461546238B13F0DA
:10C64000080F05D103F0070600230093019355E07E
:10C65000012909D043F02003238385F31188BFF318
:10C660006F8F03B0BDE8F08343F010032383F4E73A
:10C67000204605F0AFF943E0D4F814904A466946E5
:10C68000204605F0C0F94FF00008238B03F00707A0
:10C69000B74269D0A268002A66D0012243F008039D
:10C6A000238385F31188BFF36F8F002A64D1009B29
:10C6B0002BB14B463A466946204605F01DFAB8F1C3
:10C6C000000F02D034492046C0474FF02003EFF35B
:10C6D000118583F31288BFF36F8F238B23F0080338
:10C6E0002383238B13F0100F4CD023F010032383EC
:10C6F0000120268B06F007060028AED00228B7D00E
:10C700000028AAD0013804282AD801A353F820F021
:10C7100079C6000061C7000025C7000039C70000C6
:10C720004DC700002369D3F800800621204605F09C
:10C7300027F94FF00009A8E72369D3F80480042102
:10C74000204605F01DF94FF000099EE72369D3F854
:10C7500008800521204605F013F94FF0000994E701
:10C760004FF00008C14690E7009A0AB1002295E711
:10C77000B8F1000F92D1B4E74A463946204605F099
:10C7800007F994E713F0200F04D023F0200323834C
:10C790000220AEE70020ACE7271B010084460846D4
:10C7A000012226E09CF8003043F004038CF80030AE
:10C7B000F2B101301CE09CF8003043F008038CF823
:10C7C0000030F5E79CF8003043F010038CF800309F
:10C7D000EEE79CF8003043F020038CF80030E7E7E8
:10C7E0009CF8003043F040038CF80030E0E7002272
:10C7F00042B30378203B102BF9D801A151F823F064
:10C80000C5C70000EFC70000EFC70000D3C7000096
:10C81000EFC70000EFC70000EFC70000EFC7000040
:10C82000EFC70000EFC70000EFC70000B7C7000068
:10C83000EFC70000A5C70000EFC70000EFC700006A
:10C84000E1C700009CF8003003F04403442B00D003
:10C8500070479CF800306FF386138CF80030F7E7D0
:10C860002DE9F04F91B006460D4691460393002402
:10C8700099F80000002800F0B982252808D009F1B5
:10C8800001092946B0470028C0F2B1820134EFE720
:10C89000002304930593069307930893099349464D
:10C8A00006A805F05CFB02909DF8193013F0010F0B
:10C8B00000F09780039B1A1D03921F68002FC0F29F
:10C8C00088809DF8193013F0040F00F09C80039BC2
:10C8D0001A1D0392D3F800A0BAF1000FC0F28A80AB
:10C8E0000023079308939DF81A3003F007039DF87F
:10C8F0001910C1F3C301012B00F08E80022B00F050
:10C90000D380042B00F02481032B00F03B819DF8A1
:10C91000188018F0030B40F03B819DF81B30253B3D
:10C92000532B00F2CA81DFE813F04001C801C801AF
:10C93000C801C801C801C801C801C801C801C801AF
:10C94000C801C801C801C801C801C801C801C8019F
:10C95000C801C801C801C801C801C801C801C8018F
:10C96000C801C801C801C801C801C801C801C8017F
:10C97000C801C801C801C801C801C801C801C8016F
:10C98000C801C801C801C801C801C801C801C8015F
:10C990008101C801C801C801C801C801C801C80196
:10C9A000C801C801C8015E016701C801C801C8010A
:10C9B000C8016701C801C801C801C801BD018101E2
:10C9C000A101C801C8014D01C8018101C801C80108
:10C9D00081019DF8183043F004038DF818307F4230
:10C9E0006FE79DF91830002B02DB4FF0FF3768E747
:10C9F000079F66E79DF819306FF341038DF81930F2
:10CA00004FF0FF3A6CE713F0020F02D0DDF820A0E0
:10CA100066E74FF0FF3A63E7CB1E042B04D8DFE84C
:10CA200003F00B1D29353500039B1A1D03921B686B
:10CA3000DA170493059206E0039B1A1D03921B6804
:10CA4000DA1704930592012928D002297FF45FAFF9
:10CA5000BDF91030DA170493059258E7039B0733AA
:10CA600023F0070303F108020392D3E90023CDE981
:10CA70000423E8E7039B073323F0070303F10802CD
:10CA80000392D3E90023CDE90423DCE7039B1A1DBD
:10CA900003921B68DA1704930592D4E79DF91030CE
:10CAA000DA170493059232E7CB1E042B04D8DFE893
:10CAB00003F00B1F35414100039B1A1D03921B68B5
:10CAC0000493002305931EE09DF81B30632B07D0D1
:10CAD000039B1A1D03921B6804930023059312E025
:10CAE000039B1A1D03921B680493002305930AE01D
:10CAF000039B073323F0070303F108020392D3E9F2
:10CB00000023CDE9042301291CD002297FF4FFAEC4
:10CB1000BDF81030049300230593F8E6039B073318
:10CB200023F0070303F108020392D3E90023CDE9C0
:10CB30000423E8E7039B1A1D03921B680493002358
:10CB40000593E0E79DF81030049300230593DEE69B
:10CB500008290BD0039B073323F0070303F10802D6
:10CB60000392D3E90023CDE90423D0E6039B0733E6
:10CB700023F0070303F108020392D3E90023CDE970
:10CB80000423C4E6039B1A1D03921B680493BEE6AC
:10CB9000029F3B464A462946304605F086FA002861
:10CBA000C0F225810444B94662E629462520B047F3
:10CBB0000028C0F21C810134D8460DF13E0A4FF026
:10CBC00000097FE0DDF81090BAF1000F07DB514655
:10CBD000484605F0E5FB09EB000AD84672E04846F6
:10CBE00005F0D5FBF7E7049B8DF82830D8460DF10A
:10CBF000290A0DF1280965E018F0080F05D118F091
:10CC0000100804D04FF0200801E04FF02B08049AE0
:10CC1000059B002B02DB0492059308E0524263EB74
:10CC20004303049205934FF02D0800E0D8460DF120
:10CC30003E0300930AAB06AADDE9040105F0C6F93C
:10CC40008146BAF1000F6CDB0DF13E03A3EB090343
:10CC50009DF818206FF386128DF818209A4563D935
:10CC6000AAEB030307930DF13E0A2BE0049828B9C1
:10CC7000D846DFF880A1AAF1050923E00DF13E03B3
:10CC800000930AAB06AA002105F0A0F981469DF8A1
:10CC90001A3043F010038DF81A3078238DF81B30CA
:10CCA000D846CEE72246049906A805F0DFF9D84613
:10CCB0000DF13E0A4FF0000904E0D8460DF13E0A9E
:10CCC0004FF00009B9F1000F00F08D80AAEB0903C5
:10CCD000B8F1000F00D001339DF81A2012F0100FA8
:10CCE00025D0023307990B4412F0400F01D0089A67
:10CCF0001344002F31DDFF1A9DF8183013F0040F94
:10CD00002BD113F0400F17D0B8F1000F17D02946E0
:10CD10004046B04700286ADB0134D8464FF0300B5C
:10CD20000FE00DF13E0ACDE70DF13E0ACAE712F021
:10CD3000080FD7D00133D5E74FF0200B01E04FF0BB
:10CD4000300B3B465F1E002B07DD29465846B04797
:10CD500000284CDB01343B46F4E7B8F1000F05D066
:10CD600029464046B047002841DB01349DF81A307F
:10CD7000C3F30012C3F3C0031A4305D02946302081
:10CD8000B047002833DB01349DF81A3013F0100F40
:10CD900006D029469DF81B00B047002827DB013448
:10CDA000079B03F1FF38002B07DD29463020B047F1
:10CDB00000281CDB01344346F3E753464A46294624
:10CDC000304605F072F9002811DB0444002F07DD1E
:10CDD00029462020B047002809DB0134013FF5E750
:10CDE000DDF8089044E5DDF8089041E5204611B0F3
:10CDF000BDE8F08F1943010008B54FF02002EFF3B2
:10CE0000118382F31288BFF36F8F05F058FB03483C
:10CE100004F09EFD00F088FAFCE700BF1C4301000F
:10CE200002F02AB98446002300E00133074A126861
:10CE30009A4208DD1A010649096801EB03108A5C71
:10CE40006245F2D100E00020704700BF4843010076
:10CE50000800002038B50C4B1B687BB10C46FFF76F
:10CE6000E1FF054668B1C06828B106F036FE10B192
:10CE70002560002038BD6FF01200FBE76FF00C005A
:10CE8000F8E76FF00100F5E70800002070B50546EF
:10CE90004FF02003EFF3118683F31288BFF36F8FF7
:10CEA0000E4B1C680DE0A2683AB10D4B1B7D03EBE5
:10CEB00043030C4911F8230090472346246804B12A
:10CEC00023B12CB1002DEED06268EDE71C46F8E7E7
:10CED00086F31188BFF36F8F70BD00BF98030020E9
:10CEE000640E00208C03002008B5064B23B1417866
:10CEF000007805F0FBFA08BD002383F31188BFF327
:10CF00006F8FF8E7ED24010070B50E4B1C7D2146B4
:10CF10000D4805F02AF900B970BD650004EB440026
:10CF20000A4E06EB8000FFF7DFFF0020FFF7AEFFA1
:10CF30002B19990006EB8303002272505A609A6005
:10CF4000EAE700BF640E0020A00300208C0300204D
:10CF5000F8B50546384B1C7D4FF02003EFF31186E2
:10CF600083F31288BFF36F8F04EB4402334B13F843
:10CF70002230002B39D0324B03EB820C2F4F4FEA7B
:10CF8000820E07EB820393E807008CE8070000237A
:10CF900007F80E3086F31188BFF36F8F04EB44035C
:10CFA000274A12F82330002B44D0B5F1FF3F2BD194
:10CFB00003F010FE0120FFF769FF2146214805F02C
:10CFC000F0F8214B5BB11E4A04EB440302EB8303F0
:10CFD00004EB4404597812F8240005F07FFAFFF7B7
:10CFE00093FF03F0F9FF0120F8BD0146204600F051
:10CFF00031F80028CED004EB4401114B03EB810340
:10D0000007C883E80700C5E704EB44020C4B03EBB9
:10D0100082039868410CC0030C4BC0180C4A4FF0B7
:10D02000000341F10001FFF76BF90121281A06F016
:10D0300082FFBDE70020D7E7640E002080030020B8
:10D040008C030020A0030020DD2401003F420F00DC
:10D0500040420F002DE9F04182B00E4601A900F0D8
:10D0600045F8441E24B207E0B6F1FF3F33D08044B8
:10D07000B04530D9013C24B2002C2BDB019B04EBE2
:10D08000440203EB8205697813F8220005F09CF84E
:10D090000028EFD16868410CC003114FC019114A34
:10D0A0004FF0000341F10001FFF72AF98046AB6819
:10D0B000590CDB03D8190B4A4FF0000341F1000172
:10D0C000FFF71EF9084B1B68B3F1FF3FCCD083423A
:10D0D000CAD8CFE70025284602B0BDE8F08100BFDE
:10D0E0003F420F0040420F000400002008B9024BED
:10D0F0000B600020704700BF4843010008B502489C
:10D1000004F080FA08BD00BFBC430100B0F5680F11
:10D1100017D00CD840F6BA63984214D0B0F5683FE7
:10D1200013D03A2801D00120704700207047094BE6
:10D1300098420CD0084B984201D001207047002043
:10D140007047002070470020704700207047002083
:10D15000704700BF3A00003A2C5F5CA9E8B108B5FF
:10D160004268B2F5683F07D00F498A421AD000687A
:10D1700003F014FC002008BD03680022BFF35B8F9E
:10D1800053E8001F012903D143E800200028F7D10C
:10D19000BFF35B8F04D11046EDE76FF4E0407047BA
:10D1A0000248E8E70248E6E72C5F5CA9E98FFFFF49
:10D1B000EA8FFFFF30B308B54268B2F5683F0CD084
:10D1C00012498A421CD000684FF0FF324FF0FF3303
:10D1D00003F060FB88B10E480FE003680122BFF343
:10D1E0005B8F53E8001F002903D143E8002000288B
:10D1F000F7D1BFF35B8F01D1002008BD0448FCE7E5
:10D200000448FAE76FF4E040704700BF2C5F5CA968
:10D21000E98FFFFFEA8FFFFF10B50446A8B16368EE
:10D22000B3F5683F10D0B3F5680F0DD00C4A9342A8
:10D230000AD013F4686F0DD021460A4806F0A4FC0A
:10D2400000232360064B636010BD074B5B680748F3
:10D250009847E4E714220021206805F0FFF8F1E781
:10D260002C5F5CA9A408002034010020C443010005
:10D2700010B5044658B36068B0F5683F26D0B0F5E5
:10D28000680F23D0164B984226D0FFF73FFFB0B16E
:10D290004FF0FF324FF0FF332146124803F0CCF934
:10D2A00008B923681BB9104B5B68104898471422D3
:10D2B0000021206805F0D2F84FF4686363602068AD
:10D2C00006F0D5FC636843F03A03636010BD064B7B
:10D2D0005B6807489847CEE72368002BD5D1D7E78E
:10D2E0002C5F5CA9A408002034010020EC4301005D
:10D2F000C443010008B5402314220449044806F041
:10D3000035FC0449044804F0EFF908BDA4030020EB
:10D31000A40800201C4401003044010001491022EF
:10D320000A60704710ED00E072B6404080F311884B
:10D33000BFF36F8FBFF34F8F30BF62B6BFF36F8FF6
:10D34000704700BF72B6494081F3118820BF80F357
:10D35000118862B6704700BF002807DB00F01F028B
:10D36000400901239340024A42F82030704700BF31
:10D3700000E100E000280CDB00F01F02400901235F
:10D3800093402030034A42F82030BFF34F8FBFF361
:10D390006F8F704700E100E0002808DB4901C9B247
:10D3A00000F1604000F5614080F80013704700F024
:10D3B0000F004901C9B2014B1954704714ED00E048
:10D3C0004209054B53F8222000F01F00012303FA05
:10D3D00000F01040704700BF00E100E030BFFFF7F1
:10D3E000FDBF00BF08B50B4B0B4A22F07F029A60CD
:10D3F000BFF34F8FBFF36F8FD3F8882022F47002F2
:10D40000C3F8882003F062F803F03EFF00F02AFA28
:10D4100003F0BAF800ED00E000C200000A4A936889
:10D42000C3F8A80009490968C3F8AC1008494B685B
:10D4300043F080534B60002383F31188BFF36F8F59
:10D440009368D3F8AC007047640E0020A04601003A
:10D4500000ED00E013498A684FF030001044EFF30C
:10D46000098C80E8F01F202080F31288BFF36F8FB3
:10D470000D4F4FF00066CA698A603E60D2F8A8007E
:10D480000023C2F8A83080F3118804B5104600F0DC
:10D4900099FABDE8044002F1300090E8F01F8CF3E7
:10D4A00009887047640E002004ED00E01EF0040FB0
:10D4B0000CBFEFF30880EFF30980816911F8021CBB
:10D4C0000229FFD001B504F089FE01BD10B4A2F11C
:10D4D00020040E4942F8081C21F0010142F8081C02
:10D4E00042F8203C019B42F81C3C029B42F8183C4D
:10D4F000039B42F8143C4FF0807342F8043C0465EF
:10D500000023C0F8A83010BC704700BF6D1901009F
:10D51000104B9B68BBB110F1160F0BD0D3F89820BD
:10D52000A2F1400C844510D8824210D98A4207D813
:10D5300000207047D3F898208A4201D80020704715
:10D54000D3F89800704700207047002070470020F3
:10D55000704700BF640E002008B50D461446084B06
:10D56000986000F02FFA204685F30988002163B601
:10D5700081F31188BFF36F8F0022002304F0F6F9C6
:10D58000640E002001B572B60B4A906900281EBFD8
:10D590000021916106F04FFB62B6EFF30580A0F128
:10D5A00010004FEAC0000549014409C99847BDE889
:10D5B0000140034908470000640E0020C4400100F8
:10D5C000C5D50000044B9968D869884203D0034947
:10D5D0004FF080520A607047640E002004ED00E0B6
:10D5E00010B51446124B9A6A9A6A9B6A13F4007F2C
:10D5F0000BD00F4B9A6B9B6A13F4004F05D021B1EF
:10D600000B4A936A23F400439362094B9A6A9B6A1C
:10D6100013F4807F01D1064B9B6A054A936A43F459
:10D620007F439362012104F0FBFD2070002010BDB8
:10D6300000ED00E0074B9A6A9A6A9A6A9A6A9A6AB7
:10D640009A6A9A6A6FEA02426FEA12429A6200206C
:10D65000704700BF00ED00E081690D4B5A6942F44C
:10D6600080725A61BFF34F8FBFF36F8F31F8021C86
:10D670005A6922F480725A61BFF34F8FBFF36F8FE4
:10D680004DF60273994201D0002070470120704787
:10D6900000ED00E070B505461646254B9A6A9A6A79
:10D6A0009B6A13F0020F0CD0214B586B9B6A13F04E
:10D6B000800F2FD039B11E4A936A23F08003936202
:10D6C00001E06FF015001A4B9A6A9A6A9B6A13F090
:10D6D000100F04D1164B9C6A14F0020404D0144BB2
:10D6E0005C6814F4006418D1114B9B6A13F0200F8E
:10D6F00004D00F4A536A23F4005353620C4A936ACE
:10D7000043F0FF0393620121284604F089FD307045
:10D71000204670BD6FF01500D5E72946FFF7F8FEEB
:10D7200004460028E0D080F309880224DCE700BF2B
:10D7300000ED00E038B5054600230B701A4BD86A9F
:10D7400010F002002DD10C46DB6A002B2ADB164BB1
:10D75000D86A10F0804025D02846FFF77DFF08B139
:10D7600028681FE0104B9B6A13F0FF0F0DD10E4B82
:10D77000986A10F47F400ED10B4B9B6AB3F5803F43
:10D7800010D32846FFF756FF0CE022460121284619
:10D79000FFF780FF06E0224601212846FFF720FF21
:10D7A00000E0002038BD00BF00ED00E070B58AB099
:10D7B0000C46224B5968C1F30801002383F31188FA
:10D7C000BFF36F8F02F07F43B3F17F4F15D102F0AB
:10D7D0000C03082B14D012F0080F0BD000260DF10B
:10D7E0002702204604F021FD05469DF8273053B15D
:10D7F0000AB070BD04460126F1E700263446EEE784
:10D8000000263446EBE72022214601A804F0F7FD6C
:10D810004EB1089BC3F308025AB96FEA53236FEA6B
:10D820004323089305E0089B23F4FF7323F00103CF
:10D83000089301A9284604F0CDFCD9E700ED00E0EB
:10D84000024A536943F010035361704700ED00E052
:10D85000EFF30880EFF3098101B57246FFF7A6FFE9
:10D8600001BD00BF002206E003F00F03094919447F
:10D8700020230B7601322F2A0ADC53B2002BF3DB74
:10D8800003F1604303F56143202183F80013F1E7BE
:10D89000704700BFFCEC00E0002013490870002036
:10D8A00080F31488BFF36F8FFFF7BAFA00200F4997
:10D8B0000860BFF34F8F0E4880F3088800F030F8FF
:10D8C000202080F311880B484FF40461401880F346
:10D8D0000988EFF314800221084380F31488BFF312
:10D8E0006F8FFFF77FFD00007F10002094ED00E0B8
:10D8F000401E002080100020084BD3F89000C0F399
:10D900000720002306E0054AC2F898300021C2F83B
:10D91000A01001338342F6DB704700BF00ED00E04A
:10D9200010B572B6002484F31388FFF7E5FF234691
:10D9300008E003F120010E4A4FF0FF3042F82100C9
:10D940000133DBB2072BF4D9002308E003F16001B7
:10D95000074A4FF0FF3042F821000133DBB2072BBA
:10D96000F4D962B6BFF34F8FBFF36F8F10BD00BF06
:10D9700000E100E008B50A4B9B68834202D003F047
:10D980004BFC08BDEFF30583002BF8D0054B5A681C
:10D9900042F080525A605A6A22F400425A62EEE71C
:10D9A000640E002000ED00E008B5034B034A01219E
:10D9B000034804F0C0FC08BD000004200000002063
:10D9C0004044010008B5D0F89830403B044803605B
:10D9D00040234360034B8360012104F0B0FC08BD89
:10D9E000C008002000000B15084AC2F898000B6818
:10D9F00023F01F03034343F01003C2F89C308B68ED
:10DA000043F00103C2F8A030704700BF00ED00E012
:10DA100010B5034C0123227804F065FC207010BD82
:10DA20007810002008B50023094A127804F05BFC46
:10DA300010F1160F0AD0034606E0064AC2F89830E5
:10DA40000021C2F8A0100133072BF6DD08BD00BF8E
:10DA50007810002000ED00E0044B0522C3F894206C
:10DA6000BFF34F8FBFF36F8F704700BF00ED00E033
:10DA7000BFF35F8F024B0022C3F89420704700BFB2
:10DA800000ED00E038B50E4B1D68082D15D8FFF7E6
:10DA9000EFFF002409E00A4B596804EB44029300AD
:10DAA00019442046FFF7A0FF0134A542F3D8054BE7
:10DAB0001D70FFF7D1FF002038BD4FF0FF30FBE7AE
:10DAC0004C44010078100020014B1860704700BFE3
:10DAD0002C000020BFF34F8F0549CA6802F4E062B2
:10DAE000044B1343CB60BFF34F8F00BFFDE700BF74
:10DAF00000ED00E00400FA0510B54FF02003EFF34D
:10DB0000118483F31288BFF36F8F01230C4AC2F88C
:10DB100040354FF08042C2F8783504F0C0FC20B1A7
:10DB20004FF080430122C3F838264FF08043012292
:10DB3000C3F8802584F31188BFF36F8F002010BDD8
:10DB400000E0014030B108B5034B800143F0010310
:10DB5000984708BD704700BFC042010000487047A9
:10DB600020090020034BC01A8010034B03FB00F078
:10DB7000704700BFE0080020B76DDBB638B505463A
:10DB80000C46FFF7EFFF01464022034804F054FD26
:10DB900001462846A04738BD1C40010030B583B07F
:10DBA00005460C46FFF7DEFF01464023009323465F
:10DBB000054A064804F05AFD011E01DB03B030BDE2
:10DBC0002846A047FAE700BFB52601001C40010027
:10DBD00008B510B101280DD008BD0021084804F097
:10DBE000B6FC836813F0070FF6D10021044804F057
:10DBF00011FDF1E70121024804F00CFDECE700BF44
:10DC00001C40010010B582B04FF02003EFF31184E7
:10DC100083F31288BFF36F8F144A136843F0020135
:10DC2000116013F0010F09D1002384F31188BFF3B1
:10DC30006F8FB3B904F046FD02B010BD0DF10702BD
:10DC400001214FF0804004F05FFC9DF80730012B6C
:10DC500001D00023E9E7FFF781FF04F0C8FC0123AE
:10DC6000E3E70021024804F0D5FCE5E73009002095
:10DC70001C40010008B50A4BBFF35B8F53E8002F2F
:10DC800022F0020143E800100028F7D1BFF35B8FB8
:10DC900012F0010F00D008BD04F01EFDFBE700BF2D
:10DCA0003009002070B582B00546012807D14FF039
:10DCB0008043D3F81C3403F00303012B4CD005F050
:10DCC000A5FF044618B9284B1B78002B39D14FF01B
:10DCD0002003EFF3118683F31288BFF36F8F0124C3
:10DCE00024B94FF080430222C3F8082301AA00217F
:10DCF0004FF0804004F008FC20B1019B012B26D09E
:10DD0000012D24D0FCB13046FFF71CFB4FF08043BF
:10DD1000D3F81835002BE9D14FF08043D3F8043104
:10DD2000002BE3D04FF080430022C3F80421D3F846
:10DD300004210122C3F818250C49C1F880219A60FA
:10DD4000D4E70026CCE7012004F0D0FCDEE72CB1BC
:10DD500086F31188BFF36F8F02B070BD4FF0804320
:10DD60000222C3F80423F7E77F10002000E100E05F
:10DD700000B585B0CDF800D0CDF804D000230293D3
:10DD8000012303936B46074A04F08CFC002805DB53
:10DD90004FF480420023684602F062FE05B05DF851
:10DDA00004FB00BF1927010070B5064600220121BF
:10DDB000104604F023FA114801F0ACFA104B9842D7
:10DDC00019D105F0A0FC0024012C12D821463046C0
:10DDD00004F0BDFB05462146304604F0C3FB09496B
:10DDE00003F0AFFE002805DB0123AB601C44E4B266
:10DDF000EAE7002070BD6FF00400FBE7D1DB000014
:10DE00000000AD0B7C44010010B50446104B01210D
:10DE1000BFF35B8F53E8002F43E800100028F9D1CF
:10DE2000BFF35B8F1AB1631E012B0DD910BD0948DA
:10DE300004F098FB084900234B608B60CB60012302
:10DE40008B6003F09BFEEEE72046FFF72BFFEDE72C
:10DE5000DC0800201C400100CC08002010B504465E
:10DE60000A2806D0E1B2064883685B6898472046D6
:10DE700010BD034883685B680D219847F2E700BF37
:10DE80007C40010010B5044C2046FFF71DFE2046E3
:10DE9000FEF7BAFB10BD00BF5DDE000008B5054807
:10DEA00005F01BFE18B1FFF7EDFF002008BD6FF075
:10DEB0001200FBE77C40010028B1012801D1034892
:10DEC0007047002070470248704700BF344001008F
:10DED0004C400100F0B585B00E46194643681B7BE7
:10DEE00006F01F0545EA4315B2F5001F22D007468C
:10DEF0001446002301930293104604F0EFFC8DF8C2
:10DF000004007B689968F14011F0010F02D1B4F16F
:10DF1000A07F14D0002301AA1946284601F0A4FCD2
:10DF20001B4B984231D10121284601F0FDFD002014
:10DF300005B0F0BD284601F029FE0020F8E705F005
:10DF40001F036A09012A14D04FF0A04203F5E073C1
:10DF500052F8233013F0010FDCD10DF10F012846E8
:10DF600001F086FD0B4B984205D00DF10F03029393
:10DF7000D0E7094AEAE70DF10F0001F0CDFD044BAF
:10DF80009842F2D06FF00B00D2E76FF01500CFE7A8
:10DF90000000AD0B0400AD0B000300502DE9F04173
:10DFA00086B00E461446D0F8048098F80C3001F084
:10DFB0001F0545EA43150DF11701284601F058FDEC
:10DFC000074614F4403F3AD00021039104910B46D8
:10DFD00003AA284601F048FC334B984261D19F4286
:10DFE0003DD014F4003F49D00DF10301204604F068
:10DFF000FAFB074650BB9DF803308DF8043014F44B
:10E00000803F0CBF012300238DF80530204604F02B
:10E010002DFC8DF8060014F4002F25D0D8F804202C
:10E020000123B340C2F80835002201A9284601F0B7
:10E03000AFFC1D4B984209D06FF0150706E028464B
:10E0400001F0C6FD184B9F4204D00027384606B0A9
:10E05000BDE8F0819DF8170001F056FDF5E79DF849
:10E06000170001F051FDBCE714F4802FDCD0D8F884
:10E0700004200123B340C2F80C35D5E7204604F054
:10E08000F5FB8DF8080000231A4602A9284601F086
:10E09000EBFB054B984201D10027D7E76FF015073E
:10E0A000D4E76FF01507D1E70000AD0B08B501F01C
:10E0B00021FD08B1002008BD01F0F2FC084B984298
:10E0C0000AD10021074801F0CDFC002205210620DD
:10E0D00004F094F80020EEE76FF00400EBE700BFD7
:10E0E0000000AD0B15290100024B0B6001231360EA
:10E0F000704700BFA4450100004870472845010053
:10E1000038B50446056904F03EFC05F1300002F024
:10E1100083FC0C4B1B7833B100252069103002F0D2
:10E120007BFC284638BD2A460749606801F0E2FFBB
:10E1300004F0FFFB0546B0FA80F04009014B18706F
:10E14000EBE700BF791000206529010008B50069E0
:10E15000054B994200D008BD20304FF0FF324FF000
:10E16000FF3302F07DFCF6E70000AD0B38B5044646
:10E17000456802691649284601F0BCFF04F0D9FB46
:10E1800000281BDBEB7A023BDBB2012B08D9AB7A10
:10E19000042B14D0032B01D0002302E0012300E064
:10E1A00001231D460121204604F055FC002805DB13
:10E1B000C1B2C0F38013AB4203D1002038BD0123AC
:10E1C000EFE7012281F04001204604F07AFCF5E7F8
:10E1D0006529010038B5044604F0D5FB256905F131
:10E1E00030000022002302F03BFCAB6B3BB1206906
:10E1F000103002F011FC38BD322004F08BFC01F02D
:10E20000F3FF044B9842F7D102F016F8024B0022BC
:10E210001A70ECE70000AD0B791000202DE9F84FE3
:10E22000C1F30B03002B6DD105460E461446002AA0
:10E230006BD0C2F30B0ABAF1000F69D1D0F804B069
:10E24000FFF75EFF814628B12846FFF7C3FF484627
:10E25000BDE8F88F284604F08DFB0021284604F025
:10E26000E3FB814618B1286902F0D6FBECE72846AB
:10E2700004F089FB20E005F021FC0746A04611E0F0
:10E280003146012002F006F807464FF4803809E0D5
:10E290003146002001F0FEFF07464FF4805801E0B0
:10E2A000D0461D4F39462846FFF750FF1B4B9F4273
:10E2B00017D14644A4EB0804BCB1DBF81830A342E4
:10E2C000D9D0B4F5803F02D3B3B2002BD8D0B4F587
:10E2D000805FE5D3C6F30B03002BD9D0D0460E4F99
:10E2E000E0E7384604F025FB81462869103002F04B
:10E2F00093FB0121284604F097FBB9F1000FB2D13E
:10E300008146B0E76FF01509A1E76FF015099EE7A8
:10E310006FF015099BE700BF0400AD0B0000AD0BCB
:10E320002DE9F04182B005460E46174698460A464A
:10E3300004210DEB010005F0BCFB04460146284614
:10E34000FFF704FF0B4B9C4203D0204602B0BDE810
:10E35000F0814246394601A804F051F832460421C2
:10E360000DEB010005F0A0FB044601462846FFF72F
:10E37000EDFEEAE70000AD0B2DE9F04383B08146E6
:10E38000884617461D46124CEDB1114B9C421AD1DE
:10E390002E46042D28BF04263246394601A804F033
:10E3A0002EF8424604210DEB010005F07DFB0446EA
:10E3B00001464846FFF7CAFE054B9C42E4D1AD1B1F
:10E3C0003744B044E0E7204603B0BDE8F08300BF27
:10E3D0000000AD0B2DE9F04F87B082460E46174680
:10E3E0004A4201F0030402F0030258BF5442C4F150
:10E3F0000404624204F0030402F0030258BF5442D2
:10E400009C4200D91C467A4207F0030502F0030241
:10E4100058BF5542C5F104056A4205F0030502F0F4
:10E42000030258BF55429D4200D91D4601941A1B54
:10E4300002F0030B22F0030929465B1B23F00303C0
:10E44000994502DDA2EB030B9946B9F1000F09D102
:10E45000DFF8A08004BBBBF1000F35D1404607B008
:10E46000BDE8F08F7B18CDF80C90A21949460293B5
:10E47000184605F01EFB804601465046FFF766FE33
:10E480001C4B9845EAD1AC42E4D0039A0299019B17
:10E49000F81803F0A1FFDDE7C4F10402B21A042169
:10E4A00004A805F006FB804601465046FFF74EFEE5
:10E4B000104B9845D2D1019AC2F1040104AB194422
:10E4C000384603F09CFFC6E7A2194A44082104A875
:10E4D00005F0EFFA804601465046FFF737FE054B40
:10E4E0009845BBD1019848445A4604A9384403F0E2
:10E4F00086FFB3E70000AD0B034BD3F8003413F0F5
:10E50000010FF9D0704700BF00E00140024B0B60E3
:10E5100001231360704700BF4C090020004870477A
:10E52000DC45010008B504F032FC48B34FF08043ED
:10E53000D3F8103513F00102D2B2C3F3430321D054
:10E540004FF08040D0F8101521F01F014FEA430C26
:10E5500041EA4303C0F81035D0F808311BB90A4B23
:10E560001A7000200DE0D0F8103523F01F034CF096
:10E57000010C43EA0C03C0F810356FF08B0000E08B
:10E58000002008BD0020FCE77A1000200A4B1B7811
:10E590008BB14FF08041D1F81025D1F8103523F020
:10E5A0001F0302F01E0242F001021343C1F81035AE
:10E5B000014B00221A7070477A100020F8B50E4601
:10E5C000154605F0A3F904462946304604F0F3FB4E
:10E5D000F8B1B6FBF4F304FB1363EBB9B5FBF4F34A
:10E5E00004FB1353DBB9AC4202D900242046F8BD2A
:10E5F0000C4F4FF0FF324FF0FF33384602F030FA45
:10E600002946304604F007FC0446384602F004FA76
:10E61000ECE76FF01504E9E76FF01504E6E76FF03B
:10E620001504E3E7540900202DE9F0410C46164695
:10E630001D461946204604F0BEFBE0B114F0030766
:10E640001CD115F0030F1CD115B93846BDE8F08177
:10E65000DFF834804FF0FF324FF0FF33404602F0D6
:10E66000FFF92A463146204604F0FFFB07464046A4
:10E6700002F0D2F9E9E76FF01507E6E76FF015074A
:10E68000E3E76FF01507E0E75409002010B5012219
:10E690001146064805F0F2FA05F03CF9044C2060FA
:10E6A00005F034F96060002010BD00BF540900205F
:10E6B0004C09002043681A68B1F5164F6FD03AD85C
:10E6C000B1F5165F6ED00AD9B1F5E14F75D024D9F6
:10E6D00047F6122399422BD14FF4000313E0B1F512
:10E6E000966F61D007D9B1F5166F63D0B1F5965F1B
:10E6F00010D13C4B07E0B1F5967F58D0B1F5167FAD
:10E7000005D14FF41C33C2F82435002070476FF058
:10E71000150070476FF015007047B1F5615F4ED07E
:10E72000B1F5964F01D1304BEDE76FF01500704712
:10E730006FF015007047B1F5613F42D009D9B1F5CE
:10E74000612F46D01FD9294B994248D14FF08053B1
:10E75000D9E7B1F5963F37D005D9B1F5E13F0FD1F3
:10E760004FF0EB73CFE74DF6C02399422ED0B1F5B1
:10E77000614F02D14FF46B03C5E76FF0150070478E
:10E780006FF0150070471A4B994225D0B1F5E12F73
:10E7900002D14FF0E863B6E76FF0150070474FF411
:10E7A0001D03B0E7134BAEE74FF49E23ABE74FF4E6
:10E7B000A033A8E74FF41D23A5E70F4BA3E70F4BAA
:10E7C000A1E74FF06C739EE70D4B9CE74FF4650398
:10E7D00099E74FF0706396E74FF0806393E76FF02F
:10E7E0001500704700B0130000A04E0040420F001B
:10E7F00090D003000050270000C0750000F03A00E0
:10E8000000903A01F8B505460E46076905F0FEF995
:10E8100010B9124B1B7883B94FF02003EFF311842A
:10E8200083F31288BFF36F8F284604F0E4FB40B9EE
:10E8300084F31188BFF36F8FEEE7284604F040FCA5
:10E8400004463B691E7001223969284604F0EDFB3D
:10E8500084F31188BFF36F8FF8BD00BF7F100020D5
:10E8600038B504460D4601F1180001F045FA0C4B8D
:10E87000984211D12B7E04F590710C34094AA233D1
:10E8800042F8331002EBC3035C60297E01238B4006
:10E89000C2F80435002038BD6FF00400FBE700BF6C
:10E8A0000000AD0B00F0014021F07F4100F5A870A1
:10E8B000014B43F8201070470010014000F5A8708C
:10E8C000014B53F820007047001001404FF4803393
:10E8D0008340024AC2F84433704700BF0010014031
:10E8E0004FF480338340024AC2F84833704700BF78
:10E8F00000100140014BD3F804057047001001409F
:10E9000010B5012383406FEA030C0E4ABFF35B8FFF
:10E9100052E8001F01EA0C0E42E800E4002CF7D197
:10E92000BFF35B8F4FF4803282400748C0F8082362
:10E93000BFF35F8FBFF36F8F0B4214BF0120002026
:10E9400010BD00BF680900200010014038B5044622
:10E9500004F070FC05464FF48033A340164AD2F809
:10E960000423134205D10024284604F06CFC204601
:10E9700038BD0123A340DB43104ABFF35B8F52E84D
:10E98000001F01EA030042E8000CBCF1000FF6D1C1
:10E99000BFF35B8F49B904F150039B009BB203F1B5
:10E9A000804303F588331B6823B1204604F033FC11
:10E9B0000124D9E70024D7E70010014064090020B2
:10E9C00001B9704701238340114ABFF35B8F52E8BE
:10E9D00000CF4CEA030C42E800C10029F7D1BFF395
:10E9E0005B8F4FF4803383400A4AC2F80433BFF38D
:10E9F0005B8F094B1B68BFF35B8FC34013F0010FA4
:10EA0000DFD0064B4FF40032C3F80021D9E700BF36
:10EA100068090020001001406409002000E100E0C6
:10EA20002DE9F843074614461E461046194604F0E1
:10EA3000FEFB0546154B1A68A01A1C605E60A5F522
:10EA40000013B3F5400F09D3002402F009FD384646
:10EA5000FFF734FFA8420ED0BDE8F8830C4B1B68CB
:10EA60001A0A1B0615EB030842F10009094BC3E91A
:10EA700000890124E9E71CB13846FFF727FFEBE7DF
:10EA80004FF400013846FFF70FFFF5E708020020BA
:10EA90006C0900201002002038B50D4B1C68250AB7
:10EAA0002406BFF35F8FFFF725FF0346001945F1EA
:10EAB0000001B3F5801F0AD2064BD3E90023904230
:10EAC00071EB030303D210F1807041F1000138BDF6
:10EAD0006C09002010020020F8B5064614461D46B9
:10EAE0001046194604F0A3FB0746FFF7D5FFA042E6
:10EAF00071EB05031DD2201A65EB01011B4B9842F7
:10EB000071F100012FD21A4B03EB0613D3E9022354
:10EB1000AB4208BFA2421AD03946304604F098FBF7
:10EB2000394604F074FB001945F1000304461D4604
:10EB30000DE00123B3400F4ABFF35B8F52E8000F93
:10EB4000184342E800010029F8D1BFF35B8F084B5E
:10EB5000320103EB0616C6E9024506999950079B58
:10EB600073600020F8BD6FF01500FBE701000001A5
:10EB7000F80100206409002030B583B000231D4A4D
:10EB8000C2F80835002B24DD1A4C0225C4F80453C2
:10EB9000194B4FF40032C3F88021002201211120CB
:10EBA00003F02CFB112003F01FFB0123A360236063
:10EBB000124A136000240194114B0093114A002360
:10EBC000204604F080FB2846FFF71EF9204603B0DC
:10EBD00030BD0D4A02EB03124FF0FF304FF0FF3112
:10EBE000C2E902014FF480329A400249C1F804237D
:10EBF0000133C7E70010014000E100E06809002090
:10EC000021EA0000FFFF7F00F80100202DE9F04716
:10EC100082B00446FFF79AFE10B902B0BDE8F08753
:10EC2000FFF73AFF82460D4604F004FB0646134BFD
:10EC300003EB0413D3E90289C24575EB09050BD236
:10EC40000025304604F0FFFA002DE6D0009742463A
:10EC50004B462046A847E0E7084A230102EB04118F
:10EC6000D5584F680020D0504FF0FF324FF0FF339F
:10EC7000C1E902232046FFF733FEE2E7F801002056
:10EC800010B50E4BD3F8043313F0020F0DD00B4B1D
:10EC9000D3F804314BB1094B0022C3F80421D3F857
:10ECA0000431074A1368013313600024002C00DD8F
:10ECB00010BD2046FFF7AAFF0134F7E7001001401E
:10ECC0006C09002010B582B0B0F1FF3F06D00128DA
:10ECD00006DDB0F5000F05DA441E04E00F48F8E742
:10ECE000002400E00D4CFFF7D7FE0D4B1A685B685F
:10ECF000801AB0F5000F00D300242044411CB1F568
:10ED0000000F00D3054900205218019005490091D9
:10ED100043F1000304F0D7FA02B010BDFFFF7F00FB
:10ED20000802002021EA000008B5FFF7B5FE024BFB
:10ED30001B68C01A08BD00BF0802002069B900F0B6
:10ED40001F014009012806D04FF0A04201238B404B
:10ED5000C2F80C357047084AF8E700F01F01400977
:10ED6000012806D04FF0A04201238B40C2F808359D
:10ED70007047014AF8E700BF000300502DE9F04F4B
:10ED800083B080468B46019200252BE04FF0FF3484
:10ED900035E0019BC3F80C4501273E4639467F2CE0
:10EDA0001ED0B1F1FF3F40F01F8158F80A3013F434
:10EDB000005F01D001270026C3F3C11304F01F0236
:10EDC0006409012C00F014814FF0A04146EA470687
:10EDD00046EA830646EA092602F5E07341F8236015
:10EDE0000135EDB25D4580F005814FEA850A58F89E
:10EDF0002530C3F3432903F07F047F2CC6D01B0CBE
:10EE0000222B00F2F98001A252F823F093ED0000CA
:10EE100099EE0000A9EE0000B7EE0000C7EE00007A
:10EE2000D5EE0000E3EE0000F9EF0000F9EF00007E
:10EE3000F9EF0000F9EF0000F3EE000009EF000029
:10EE4000F9EF0000F9EF0000F9EF0000F9EF000022
:10EE5000F9EF0000F9EF0000F9EF0000F9EF000012
:10EE6000F9EF00001FEF000033EF000047EF000054
:10EE70005BEF0000F9EF0000F9EF0000F9EF000090
:10EE80006FEF00007FEF00008DEF00009DEF0000AE
:10EE9000ADEF0000BDEF0000019BC3F81445002753
:10EEA0003E464FF0FF317AE7019BC3F80845012742
:10EEB0003E46394673E7019BC3F8104500273E469E
:10EEC0004FF0FF316BE7019BC3F80845002701268F
:10EED000394664E7019BC3F80C4501273E460021F3
:10EEE0005DE7019BC3F8104500273E464FF0FF3118
:10EEF00055E7019BC3F80845B9F1000F66D000271C
:10EF00003E464FF0FF314AE7019BC3F80C45B9F18B
:10EF1000000F62D000273E464FF0FF313FE7019BD4
:10EF2000C3F8604558F80A10C1F3803101273E4606
:10EF300035E7019BC3F8644558F80A10C1F38031E6
:10EF400001273E462BE7019BC3F8684558F80A1095
:10EF5000C1F3803101273E4621E7019BC3F86C4590
:10EF600058F80A10C1F3803101273E4617E7019B8C
:10EF7000C3F82445012700264FF0FF310FE7019B1E
:10EF8000C3F8284501273E46394608E7019BC3F8E8
:10EF90003045012700264FF0FF3100E7019BC3F801
:10EFA0003445012700264FF0FF31F8E6019BC3F8F6
:10EFB0003845012700264FF0FF31F0E6019BC3F8EA
:10EFC0003C45012700264FF0FF31E8E64F464E460C
:10EFD0004FF0FF314FF00609E1E64F464E464FF045
:10EFE000FF314FF00609DAE62046FFF7A7FEDCE620
:10EFF0000449EBE6002001E06FF0850003B0BDE8B6
:10F00000F08F00BF0003005008B51022034903F041
:10F01000D1F908B1022008BD0120FCE778460100C3
:10F02000BFF34F8F0549CA6802F4E062044B1343F3
:10F03000CB60BFF34F8F00BFFDE700BF00ED00E0E6
:10F040000400FA05024BD3F80034002BFAD07047C5
:10F0500000E0014008B5034BC3F80405FFF7F2FFD9
:10F0600008BD00BF00E00140014B024A1A60704732
:10F07000A80000200090D00338B504F072FA40B127
:10F080004FF080430022C3F80C21C3F81021C3F8CD
:10F09000382504F070FA002846D04FF08052D2F89C
:10F0A00004144F4BC3F82015D2F80814C3F82415E4
:10F0B000D2F80C14C3F82815D2F81014C3F82C1584
:10F0C000D2F81414C3F83015D2F81814C3F8341554
:10F0D000D2F81C14C3F84015D2F82014C3F8441514
:10F0E000D2F82414C3F84815D2F82814C3F84C15E4
:10F0F000D2F82C14C3F85015D2F83014C3F85415B4
:10F10000D2F83414C3F86015D2F83814C3F8641573
:10F11000D2F83C14C3F86815D2F84014C3F86C1543
:10F12000D2F84424C3F8702504F02FFA18B12D4BFF
:10F130002D4AC3F88C2604F03BFA18B12B4BFB2266
:10F14000C3F8182504F047FA70B14FF08041D1F8A8
:10F15000E43E23F00F034FF08052D2F8582202F021
:10F160000F021343C1F8E43E04F048FA20B1204BEB
:10F170004FF40072C3F8402604F053FA60B14FF028
:10F180008043D3F8003413F0010F05D04FF08043D3
:10F190006FF00102C3F8002404F05DFA4FF0102371
:10F1A000D3F80032002B08DB4FF01023D3F80432E1
:10F1B000002B02DBFFF758FF38BD0120FFF74AFFA5
:10F1C0004FF010241225C4F80052FFF73BFFC4F89B
:10F1D0000452FFF737FF0020FFF73CFFFFF720FF47
:10F1E00000C00040005000404881030000F0004093
:10F1F0000090024010B50468B4FA84F3C3F11F0311
:10F200005FFA83FC002B16DB012202FA03F324EAE7
:10F210000303BFF35B8F50E8002FA24204D140E804
:10F22000003EBEF1000FF6D1BFF35B8FE3D181F852
:10F2300000C0024810BD0248FCE700BF0000AD0B53
:10F240000200AD0B0368CB4013F0010F15D100B5E0
:10F25000026801238B401343BFF35B8F50E800CF5C
:10F26000944504D140E8003EBEF1000FF6D1BFF353
:10F270005B8FEDD102485DF804FB0248704700BF88
:10F280000000AD0B0400AD0B70B582B0064618B19E
:10F29000012816D002B070BD4FF080430222C3F89F
:10F2A00008230022C3F80421D3F804210122DA60E4
:10F2B00001238DF807309E420FD0002542F21074D2
:10F2C00013E04FF080430122C3F808230021C3F864
:10F2D0000011D3F800115A60EAE70DF10705EDE7D8
:10F2E000012004F0C8F9013C0CD02A4631464FF009
:10F2F000804004F0C4F928B1002DF1D09DF807300A
:10F30000012BEDD0012EC5D1014B00225A71C1E76E
:10F3100070090020064B1B793BB9054B1860012290
:10F320001A7100225A71034870470348704700BFA2
:10F33000700900200000AD0B0C00AD0B08B54FF0BC
:10F340008043D3F800318BB14FF080430022C3F8E3
:10F350000021D3F800210122C3F80823154B5B7963
:10F3600023B9144B5A711B68002098474FF0804313
:10F37000D3F804319BB14FF080430022C3F804213D
:10F38000D3F80421D3F81824D3F8183412F0030F5B
:10F3900006D14FF080430122C3F818259A6008BDBA
:10F3A0004FF080430222C3F80823024B1B68012060
:10F3B0009847F4E770090020F0B51C46059F069EAB
:10F3C00000F01F0C4009012835D04FF0A0450CF586
:10F3D000E07355F8233081B3012082B34FF0020E61
:10F3E00040EA0E0074B34FF00C0E40EA0E0067B313
:10F3F0004FF4E06E40EA0E0056B34FF4403E40EA50
:10F400000E0023EA000031B30B7832B312785200B9
:10F41000134324B322789200134317B33A781202AD
:10F42000134306B332781204134303430CF5E07C14
:10F4300045F82C30F0BD0D4DC9E70020CDE74FF069
:10F44000000ECDE74FF0000ECFE74FF0000ED1E7F2
:10F450004FF0000ED3E70023D7E70022D8E70022C1
:10F46000DAE70022DCE70022DEE700BF00030050FD
:10F4700000B583B084468E460D4B93E8030002AB83
:10F4800003E9030063460BE002A901EB830151F895
:10F49000081CD1F8200542F8040BC1F820050133FF
:10F4A0000CEB0E009842EFD803B05DF804FB00BFF0
:10F4B000B04201000830034B33F8100000F00100A7
:10F4C000704700BFAC0000200830034B33F8100039
:10F4D000C0F34010704700BFAC0000200830044B60
:10F4E00033F8100010F01C0018BF0120704700BF57
:10F4F000AC0000200830034B33F81000C0F340008C
:10F50000704700BFAC0000200830024B33F81000F9
:10F51000400B7047AC000020002204E04FF0FF33A6
:10F5200083420FD001322F2A0AD802F1080306497C
:10F5300031F8133013F4807FF0D0C3F34323EFE7A7
:10F540000020704701207047AC000020002313B159
:10F550004FF0FF307047074A52F83320824201D003
:10F560000133F4E7034A02EBC30252688A42F7D13F
:10F5700018467047AC00002000F108020F4B33F82A
:10F580001230C3F38203042B12D0052B12D000F0EB
:10F590001F024009012809D04FF0A043D3F81035CD
:10F5A000D34013F0010F07D003207047044BF5E759
:10F5B000032070470220704702207047AC000020F3
:10F5C000000300500830064B33F8100010F4807F21
:10F5D00004D0C0F3432003EBC00070470020704705
:10F5E000AC00002070B504460D46FFF7EBFF20B1DC
:10F5F0000668426829462046B047044B9B6823B101
:10F60000024AD26829462046984770BDAC000020C7
:10F6100070B506460C461546084604F032F960B946
:10F62000022D28D00221304604F003F9032C26D005
:10F63000022D22D0032D27D070BD21463046FFF782
:10F64000D1FF06F01F037209012A12D04FF0A04229
:10F6500003F5E07352F82330C3F301439D42EBD12D
:10F660000021304604F0E5F82946304604F0E1F880
:10F67000E2E7074AECE70321D5E7012CDAD121467E
:10F680003046FFF7AFFFD7E7022CD5D1F7E700BF31
:10F690000003005000F108020E4B33F8123013F44F
:10F6A000807F16D010B5C3F34324104623F4F853DB
:10F6B000084A22F810302046FFF72EFF00B110BD97
:10F6C0000448002340F8343021467430FFF7BAFD77
:10F6D000F5E77047AC00002010B50446FFF7F4FED4
:10F6E00040B12046FFF710FF00F5A270064B002244
:10F6F00043F820202046FFF7CDFF0834034B0022BB
:10F7000023F8142010BD00BF00600040AC000020B2
:10F7100070B582B005460E461446FFF7BBFF26B310
:10F7200021463046FFF712FF031E13DB104941F854
:10F73000336001EBC302546005F1080031F810207A
:10F740005B029BB2134343F4807321F810300948E5
:10F7500002B070BD0DF107010748FFF74BFD054BE7
:10F760009842F5D19DF80730E0E70248F0E700BF86
:10F77000AC0000200000AD0B2001002070B582B06D
:10F780006A4602210020FFF773FE40E0224E05F595
:10F79000E07356F82320C2F30142FFF739FF01233B
:10F7A000AB40C6F8203502AB03EB840353F8080CDA
:10F7B00000B390FAA0F0B0FA80F000EB441000F132
:10F7C0000802164B33F81210C1F38201C50800F08D
:10F7D00007061DF805200123B340DB435BB213404D
:10F7E0000DF8053000F01F054309012BCED04FF076
:10F7F000A046CCE70134012CD5D9094B0022C3F82F
:10F800007C21D3F87C31684604F040F808B100242C
:10F81000F1E702B070BD00BF00030050AC00002053
:10F820000060004038B5044618E094FAA4F3B3FA37
:10F8300083F301229A4024EA02040A4A03F5A273E0
:10F8400052F82350C5F3052552F82300C0F30140B8
:10F8500004F015F801462846FFF7C4FE002CE4D159
:10F8600038BD00BF006000402DE9F04184B004467F
:10F8700015461E4609B30F4603F0EBFF00283FD1A3
:10F8800000238DF80E308DF80F30019300933B4626
:10F890000DF10F020DF10E012046FFF78DFD384AE4
:10F8A00004F1080132F8113023F002039BB222F870
:10F8B000113043F0010322F81130BDB12F78D5F893
:10F8C00004802046FFF716FEE0B1B8F1000F51D1D9
:10F8D0002B4A04F1080132F8113023F01C039BB2CB
:10F8E00022F8113043EA870322F81130002E45D068
:10F8F000726831682046FFF70BFF04B0BDE8F08165
:10F900002048FAE71E4A04F1080132F8113023F0CA
:10F910002003DB04DB0C22F81130B8F1000FD7D044
:10F92000032F29D86B681D7837B905F5A275164BDA
:10F93000002243F82520CBE7384603F0A1FF034619
:10F94000114805F5A27150F8212022F0030240F879
:10F9500021202246294603F034FF094A04F1080118
:10F9600032F811306D03ADB22B4343F0200322F87F
:10F970001130ADE70348C0E70248BEE70348BCE7E3
:10F98000AC0000200400AD0B006000400000AD0B97
:10F9900070B584B00446154629B30E4603F068FFDF
:10F9A00020B12046FFF790FD002838D12046FFF710
:10F9B00095FD10B17378012B31D001238DF80F30F4
:10F9C000002301930096B31C721C0DF10F01204619
:10F9D000FFF7F2FC1F4A04F1080132F8113043F03E
:10F9E000030322F8113085B3204603F041FF70BBBA
:10F9F0002E7806F5A272184B002143F82210154A02
:10FA000004F1080132F8113023F02003DB04DB0C91
:10FA100022F811306B7823B9104804B070BD10483B
:10FA2000FBE7AA780092224631460B4803F0E2FE3B
:10FA3000084A083432F814307603B6B2334343F040
:10FA4000200322F814300548E7E70448E5E70448B6
:10FA5000E3E700BFAC000020006000400000AD0BF9
:10FA60000400AD0B014B9860D9607047AC000020DA
:10FA700038B504460D46FFF727FD40B104F10800F4
:10FA8000044B33F810305B0B2B70034838BD034830
:10FA9000FCE700BFAC0000200000AD0B0400AD0B84
:10FAA0000F4B93F878300BB10E48704710B50E4CE1
:10FAB00060220021204602F0D1FC062002F094FBD7
:10FAC0000A4B0022C3F87C21D3F87C214FF000427E
:10FAD000C3F80423012384F868306366044810BD2A
:10FAE000AC0000200500AD0BBC0000200060004011
:10FAF0000000AD0B034B93F87800003818BF0120CD
:10FB0000704700BFAC00002008B501460148FFF770
:10FB100099FB08BD1C01002008B501460148FFF70C
:10FB200069FB08BD1C01002038B504460D46FFF7EF
:10FB3000CBFC00B3204603F09BFEE0B12046FFF76C
:10FB4000E3FC830003F580739BB203F1804303F56C
:10FB5000C04300221A601B680B4A00F5A27152F8DC
:10FB6000213043F0010342F821305DB1012383408D
:10FB7000C2F8043306E02046FFF7FEFC01462046AB
:10FB800003F057FE38BD00BF0060004010B50446CA
:10FB9000FFF79AFCA0B1204603F06AFE80B1204630
:10FBA000FFF7B2FC01228240084BC3F8082300F59E
:10FBB000A27053F8202022F0030243F8202003E033
:10FBC0000021204603F035FE10BD00BF006000405C
:10FBD00010B50446FFF76EFC08B90C4810BD20466E
:10FBE000FFF7D4FF2046FFF777FD04F01F036409F9
:10FBF000012C08D04FF0A04203F5E073022142F837
:10FC000023100348EAE7034AF6E700BF0400AD0B00
:10FC10000000AD0B0003005038B501204FF4807395
:10FC200000210C4603E0400004339BB20131072958
:10FC300014D803F1804202F5C0421268002AF2D0C3
:10FC40000C4AD2F804231042EDD003F1804202F5B1
:10FC5000C0420025156012680443E4E7054BD3F861
:10FC60007C311BB92046FFF7DDFD38BDFFF786FD6F
:10FC7000F8E700BF00600040024B0022C3F80425F3
:10FC8000704700BF00E00140024B0122C3F8042589
:10FC9000704700BF00E00140024B0222C3F8042578
:10FCA000704700BF00E00140044BD3F8003413F06C
:10FCB000010FF9D00160BFF35F8F704700E0014092
:10FCC00010B5044603F006FE08B9084810BDFFF75A
:10FCD000E3FF074BC3F80845054BD3F8003413F096
:10FCE000010FF9D0FFF7C8FF0248EFE70A00AD0B9C
:10FCF00000E001400000AD0B08B501460148FFF7E8
:10FD000079FA08BD2801002010B5044603F006FE6C
:10FD100010B1034B01225A650023C4F8003510BD11
:10FD20000090024000F0604CBCF1005F55D110F033
:10FD3000030F54D130B42D4C94F830C0BCF1010FF6
:10FD400001D09C454DD1294C246854B3274DAD6852
:10FD5000FDB1264DE8606961EA610025022B22D0E1
:10FD6000234BC3F80425C3F80805C3F80C15042376
:10FD700014B3002D38D01E490022C1F80021012201
:10FD8000C1F8042303F1804303F524331A601948B2
:10FD900028E0164DA8602961AA6185F83030012558
:10FDA000DCE70025DAE7124BC3F81025C3F8140589
:10FDB000C3F818150823DBE70D4A0021C2F800112B
:10FDC00003F1804303F5243301221A60084BD3F872
:10FDD0000031002BFAD0074804E007487047064876
:10FDE0007047064830BC70470248FBE7780900209E
:10FDF000009002400000AD0B0A00AD0B0B00AD0BF4
:10FE000008B50146C37C13B1007D002866D10A798C
:10FE1000FF2A76D04879FF2875D08879FF2874D0DA
:10FE2000C879FF2873D0002B56D102F01F03520966
:10FE3000012A54D04FF0A04203F5E07340F20230A3
:10FE400042F823004B7903F01F025B09012B48D0D5
:10FE50004FF0A04002F5E07340F2023240F8232058
:10FE60008B7903F01F025B09012B3CD04FF0A040BF
:10FE700002F5E07340F2023240F82320CB7903F020
:10FE80001F025B09012B30D04FF0A04002F5E07358
:10FE900040F2023240F823200B7AFF2B0CD003F003
:10FEA0001F025B09012B22D04FF0A04002F5E07346
:10FEB00040F2023240F823204B7AFF2B0CD003F0A3
:10FEC0001F025B09012B14D04FF0A04002F5E07334
:10FED00040F2023240F82320087D60B108BD0D4A8F
:10FEE000AAE70C48B6E70B48C2E70A48CEE709483C
:10FEF000DCE70848EAE70431074803F019FD012070
:10FF0000ECE70020EAE70020E8E70020E6E7002031
:10FF1000E4E700BF00030050009002402DE9F047E5
:10FF200082B0444CD4F82435DBB28DF80030D4F8DC
:10FF300028855FFA88F08DF80100D4F83075F9B2A1
:10FF40008DF80210D4F83465F2B28DF80320D4F89D
:10FF500038555FFA85FE8DF804E0D4F83C455FFA29
:10FF600084FC8DF805C003F01F095B09012B53D0F9
:10FF70004FF0A04A09F5E0734FF002094AF82390C8
:10FF800000F01F00C8F34218B8F1010F47D04FF03E
:10FF9000A04300F5E0704FF0020843F8208001F024
:10FFA0001F01C7F34217012F3BD04FF0A04301F5CB
:10FFB000E071022043F8210002F01F02C6F342164E
:10FFC000012E30D04FF0A04302F5E072022143F839
:10FFD0002210BEF1FF0F0CD00EF01F0EC5F342151C
:10FFE000012D22D04FF0A0420EF5E07E022342F810
:10FFF0002E30BCF1FF0F0CD00CF01F0CC4F34214D8
:020000040001F9
:10000000012C14D04FF0A0420CF5E07C022342F802
:100010002C3002B0BDE8F087DFF81CA0AAE7064B41
:10002000B7E7054BC3E7044BCEE7034ADCE7024AD8
:10003000EAE700BF00900240000300500A4B9A68B4
:1000400002601A6942609A698260DA683AB19A601D
:100050005A691A61DA699A610022DA607047024BC4
:1000600000229A60704700BF78090020034BD3F844
:100070001C250260D3F820350371704700900240C0
:1000800008B50E4B93F83030032B0AD0042B0ED05A
:10009000022B00D008BD012300F8043BFFF7CEFF80
:1000A000F8E7022300F8043BFFF7C8FFF2E7032359
:1000B00000F8043BFFF7DAFFECE700BF7809002007
:1000C00010B56424084BD3F8003133B90A2003F08B
:1000D000D2FA013CF6D1002300E001230BB1034822
:1000E00010BD0348FCE700BF009002400000AD0BCC
:1000F0000700AD0BF8B51C4B93F8303083BB0446BA
:100100000F461646FFF77CFE60B3214651F80A3BC6
:10011000164DC5F84035284603F03BFC04F10E01AE
:10012000284603F046FC104B1F605E60E27C83F8BB
:1001300031200123C5F8083317B1292002F054F803
:10014000094B00219960D960012283F83020074BC8
:10015000C3F80025C3F800111A60FFF7B1FFF8BD1E
:100160000348FCE70348FAE77809002000900240C2
:100170000500AD0B0400AD0B38B5164B93F83030CD
:10018000012B23D104461546134B0022C3F800214E
:1001900021B10A464178184603F023FC0E4801239A
:1001A000C0F80833214603F06CFCFFF789FF0B4BC6
:1001B00098420CD0084B0022C3F8002145B12A46D2
:1001C0006178184603F03BFC054800E0054838BD5F
:1001D0000348FCE778090020009002400700AD0BBF
:1001E0000000AD0B0B00AD0B00B583B000238DF804
:1001F00007300093ADF8043005238DF8003002235A
:100200008DF8013001238DF803300DF107021146FE
:100210006846FFF7B1FF064B984204D19DF80730BE
:1002200013F0010F02D103B05DF804FB0148FAE7B7
:100230000000AD0B0B00AD0B10B5292001F0D9FF6C
:10024000114BD3F8343603F44033B3F5803F13D069
:100250000D4C0123C4F8083323612046FFF754FDF9
:100260000023C4F80031094B93F831304BB1074BF0
:10027000002283F8302010BD034B054AC3F8342612
:10028000E6E7FFF74BFEF2E7009002407809002016
:100290000001030011F0030F28D1164B1B6823B196
:1002A000144B93F83030012B22D1124A042382F8E8
:1002B0003030114BC3F81C15C3F820050021C3F8DA
:1002C00000110121D96013682BB10B4B0122C3F837
:1002D00004230A487047084BD3F80031002BFAD0AA
:1002E000044B012283F830200448704704487047CB
:1002F0000448704778090020009002400000AD0BD0
:100300000A00AD0B0B00AD0B0F4BD3F8003103B956
:10031000704710B50C4B0022C3F800210B4C20464F
:10032000FFF7AEFE54F8183C43B1094C23686168EE
:1003300000209847002384F8203010BDA4F120034A
:10034000012283F83020F0E7009002409809002055
:100350007809002010B5144C032323616361134A0C
:10036000A261134BE3614FF4806323620023A36215
:100370006362E36222660F4A62661022A266236706
:10038000E36663670C49E01D01F0DDFFBFF35F8F9B
:100390000A49204601F0D7FFBFF35F8F2023A371E6
:1003A000BFF35F8F10BD00BFBC0D00208846010069
:1003B000BC090020AC0900209446010098460100C9
:1003C000034B00E01833034A9342FBD3704700BF4E
:1003D0001C400100C440010070B50646114B53F8A3
:1003E000204009E0404217E0EB681870EA68537853
:1003F00043F0010353700834731C0A4A52F8233047
:10040000A3420DD96568236828469847002DF2D08D
:100410000028EBD00028E5DBFF28E5DDFF20E3E73F
:1004200070BD00BFB446010010B586B0B023104CBB
:1004300003FB004400EB400C0E4B03EBCC030E4AD5
:100440000592012204920F2203920022029201924D
:1004500000930A4B4FF4A072094901EBCC112046DE
:1004600000F04CF9637B23F00403637306B010BD06
:1004700018020020640E0020A44601005908010063
:10048000C018002008B50A4B01221A700320FFF79C
:10049000A3FF01F067F80420FFF79EFF00F092F938
:1004A000FCF798F8034A137B23F00103137308BD8C
:1004B0007F100020C802002008B50146014A02480A
:1004C000FDF74AF885040100C802002008B503487A
:1004D000034A121A002103F02AFB08BDF80100208C
:1004E0008010002010B50446FFF79EFFB0230B4993
:1004F00003FB04110A4A04EB440302EBC303D96073
:100500001C7504EB4411074B03EB811303F50463E3
:1005100004EB440402EBC402536010BD1802002037
:10052000640E00208010002070B586B000F0A6FD9B
:10053000104D114BDD61114B0593012304930024F1
:1005400003940294019400940D4B4FF480620D4982
:10055000284600F0D3F806466B7B23F004036B7348
:10056000284603F0DFFB2046FFF7BCFF304606B00D
:1005700070BD00BFC8020020640E0020AC46010020
:1005800085040100401A002000B5ADB00020FFF73F
:1005900023FF1D4B83F308881C4C636943F40073ED
:1005A0006361E02384F822300025E57725766576BF
:1005B000A57684F82050636A43F4E023636284F8EC
:1005C0002350FDF73DF9FCF7A9FE4FF0FF33A3627E
:1005D000E362FDF757FAFDF7E7F901248DF80D40C6
:1005E0008DF80C40269527952995094BC3F808D01E
:1005F000FFF7E6FE2046FFF7EFFE0220FFF7ECFED6
:10060000FFF792FFFFF758FFC018002000ED00E051
:10061000640E002010B5064C002000E01C34054B91
:100620009C4204D2204603F08AFA0028F6DA10BD74
:10063000A2010020A201002030B583B00D464FF08A
:100640002001EFF3118C81F31288BFF36F8F6146A5
:10065000446964B12C602368436183690133836119
:10066000002081F31188BFF36F8F03B030BD00F11C
:10067000080E53EA020404D100232B606FF00B0034
:10068000EFE7009201930246704600F0F1FB00286C
:10069000EBD1024B9B685B692B60E6E7640E0020A0
:1006A0004FF02003EFF3118183F31288BFF36F8FB4
:1006B0000A4B9B6A834204D11A6F084B9A6207E087
:1006C000134613B11A6F8242FAD10BB1026F1A6747
:1006D00081F31188BFF36F8F704700BF640E002055
:1006E00008B553EA020102D103F096FA08BD0249A7
:1006F000183000F02BFEF9E75D3D01002DE9F04FC9
:1007000085B004460F4615461E46DDF838A0DDF8D4
:100710003C90DDF84080DDF84CB000F15803836573
:10072000C365129B0422119903F07AFA2A463946CE
:10073000204603F058FA0546CDF80880CDF804901D
:10074000CDF800A03346024639462046FCF7BEFEEF
:10075000002363652666C4F864A0C4F86890C4F8F2
:100760006C804FF02003EFF3118283F31288BFF304
:100770006F8F134B996A21679C6282F31188BFF3D4
:100780006F8FBBF1000F13D01F22594604F1740084
:1007900001F0E3FD002384F89330094B9B685BB1C3
:1007A000D3F8A430C4F8A430284605B0BDE8F08FD3
:1007B000002384F87430F0E7C4F8A430F4E700BFF5
:1007C000640E002030B587B0214C14E0E36A059335
:1007D000236A0493E3690393A36902936369019312
:1007E00023690093E368A26861682068FFF786FFC9
:1007F00023685C653034174B9C42E7D300F0EAF97C
:10080000134C00E03034134B9C421CD2606AB0F1B0
:10081000FF3FF7D0256820EAE070C117C90341EA1D
:100820005041C00340F2E733C0184FF47A724FF0E2
:10083000000341F10001FBF763FD02460B46284629
:10084000FFF74EFFDEE700F0C7FB07B030BD00BF8B
:10085000444201004442010008B501E0FCF764FD98
:100860004FF02002EFF3118382F31288BFF36F8FF2
:1008700003F04AFB054B9861054B1B78002BEDD02C
:10088000FCF766FB0028EBD1E8E700BF640E002010
:100890007F1000202DE9F04182B004461E464FF043
:1008A0002003EFF3118583F31288BFF36F8F2B467C
:1008B000C16899B9002951D1364A926892F90E203F
:1008C00022610131E160334A9268A26083F31188AA
:1008D000BFF36F8F002002B0BDE8F081174680683B
:1008E0002C4A92689042E5D056EA070138D090F938
:1008F0000E80414692F90E0003F0A3F9804536DCE4
:100900004FF000080097019622462946224800F041
:10091000AFFA0028DFD04FF02003EFF3118583F307
:100920001288BFF36F8F2E46A36843B323689C429F
:1009300023D013B3216993F90E0003F082F9014625
:10094000204603F089F9E8B9B8F1000F1AD186F30F
:100950001188BFF36F8F6FF00A00BCE72269AFE721
:1009600085F31188BFF36F8F6FF00F00B3E7014677
:10097000204603F071F98046C4E72169E0E7B8F149
:10098000000FE4D02946044800F00EF96FF00A0089
:10099000A1E700BF640E0020900E002083688BB397
:1009A00070B504461A4A926893422ED1C368012B4F
:1009B00003D9013BC360002070BD4FF02003EFF36B
:1009C000118583F31288BFF36F8F016903F044F937
:1009D000204603F03EFAA06068B190F90E30236122
:1009E0000024C0F8AC4003F09DF92946094800F006
:1009F000DBF82046E0E70020E06085F31188BFF3D4
:100A00006F8FD9E76FF0150070474FF0FF30D3E7D5
:100A1000640E0020900E002038B504464FF02003ED
:100A2000EFF3118583F31288BFF36F8F03F011FA90
:100A300048B10022C0F8AC2003F074F929460748F9
:100A400000F0B2F838BDA368E268934203D00122F7
:100A50001344A360F2E70022FAE700BF900E0020E3
:100A600010B582B04FF02004EFF3118184F31288A7
:100A7000BFF36F8F846844B1013C846081F31188B7
:100A8000BFF36F8F002002B010BD53EA020406D0FE
:100A9000009201930246054800F0EAF9F3E781F37A
:100AA0001188BFF36F8F6FF00F00ECE7900E0020FE
:100AB000C3897F2B0ED8437B13F01F0F0CD190F905
:100AC0000E20084B1B689A4208DB074B984207D060
:100AD00001207047002070470020704700207047B9
:100AE00000207047940E002018020020B3F1FF3F51
:100AF00008BFB2F1FF3F00D1704708B50249183076
:100B000000F024FC08BD00BF5D3D010010B5074B9F
:100B10001C6804B910BDFEF707F90444044B1C61BE
:100B20000021024B186803F006FAF3E7980E002044
:100B3000640E002070B504460E4600234FF02002DC
:100B4000EFF3118582F31288BFF36F8F0EE0022856
:100B5000B8BF02201860114B1E60114B9868FFF758
:100B6000D5FF85F31188BFF36F8F0123A3B90C4B19
:100B700000221A61610CE00340F2E733C0184FF421
:100B80007A724FF0000341F10001FBF7B9FB054B0E
:100B90001860002CDBDCDEE770BD00BF940E002087
:100BA000640E0020980E002008B50B4659B9EFF3EB
:100BB000058242B9064AD0699268904203D008463D
:100BC000FCF72CFC03E083F31188BFF36F8F08BDA3
:100BD000640E002000234FF02002EFF3118182F316
:100BE0001288BFF36F8F09E0064B9A68D37B013BF5
:100BF000D37381F31188BFF36F8F0123002BF3D0E0
:100C0000704700BF640E002038B50446104803F05A
:100C100082F8054670B184B90E4B9B685A7B12F07E
:100C20001F0F0AD1AA6942B9DA897F2A05D9094A70
:100C3000D3610BE0074BDD68EDE7064B9B68AB42E9
:100C400002D02846FFF762FF024BDD6138BD00BFCE
:100C5000840E0020640E002038B50546427B90F9D2
:100C60000D30002B0ADB6B7B63F07F036B731B4B38
:100C700053F8204F9C4210D100240EE002F07F0276
:100C800042730146164803F030F8ECE763686B6086
:100C90002C601D60656017E000246CB12146284679
:100CA00002F0FFFF0028F1DC002CF6D00B4B5B6A52
:100CB0009C42F1D02468F0E7084B5A6A03F1200106
:100CC00029606A6015605D62044B9868A84214BF91
:100CD00000200120FFF798FF38BD00BF640E002000
:100CE000840E002038B50446074B9D686B7B13F0DB
:100CF0001F0F04D02846FFF709FF204638BD2846BD
:100D0000FFF7AAFFF6E700BF640E0020F8B505461E
:100D10004FF02003EFF3118683F31288BFF36F8F38
:100D2000154B9868154B1B68984211D03446134BED
:100D300000221A60124B1B68B3B1FFF7B9FE98B1DD
:100D40000D4B1B69AB420ADD5B1B0B4A13610EE0C6
:100D5000FFF7DCFE86F31188BFF36F8F0BE03046A0
:100D6000FFF7C0FF044602E0034B00221A6184F340
:100D70001188BFF36F8FF8BD640E0020900E002025
:100D8000980E0020427B90F90D30002B33DB70B5BC
:100D9000044612F01F0F01D1866906B170BD62F0E2
:100DA0007F024273144B53F8205F9D4208D13546B1
:100DB00006E06B68636025601C606C6017E0354678
:100DC0006DB12946204602F06CFF0028F1DC002DB1
:100DD000F6D0094B5B6A9D42F1D02D68F0E7064BD7
:100DE0005A6A03F120012160626014605C62002095
:100DF000FFF70AFFD2E77047640E002010B54FF0EE
:100E00002003EFF3118483F31288BFF36F8F437BCA
:100E100013F0040F04D184F31188BFF36F8F10BD5A
:100E200023F004034373FFF7ADFF21460148FFF7AA
:100E3000BBFEF4E79C0E002010B50446427B90F9FF
:100E40000D30002B08DB084B9868A04214BF00202F
:100E50000120FFF7D9FE10BD02F07F024273014668
:100E6000024802F042FFEEE7640E0020840E0020EC
:100E700010B50C4611460A4882680A4B1A604FF0BA
:100E80002002EFF3118382F31288BFF36F8FDDE945
:100E90000223806802F0D1FF2046FCF7BFFA10BDA4
:100EA000640E0020900E00202DE9F84305460F4601
:100EB00000234FF02002EFF3118682F31288BFF374
:100EC0006F8F184629E063686B602C601D60656059
:100ED00017E044466CB12146284602F0E2FE0028A5
:100EE000F1DC002CF6D01D4B5B6A9C42F1D02468EB
:100EF000F0E71A4B5A6A03F1200129606A60156015
:100F00005D620120FFF780FE012001E0AF73002049
:100F100086F31188BFF36F8F0123E3B96B7B13F066
:100F20001F0FF3D1D5F81880B8F1000FEED103F000
:100F30007F036B73DFF828902946484602F0D5FE00
:100F4000AF736B7B63F07F036B73D9F800404C4544
:100F5000C0D14446BEE7BDE8F88300BF640E002060
:100F6000840E002038B50446183002F0AFFF00238D
:100F70004FF02002EFF3118582F31288BFF36F8FD9
:100F800010E0637B43F010036373114B9868A04239
:100F900014BF00200120FFF737FE85F31188BFF34F
:100FA0006F8F012363B9627B94F90D30002BE8DA6F
:100FB00002F07F0262732146064802F096FEE0E7E7
:100FC000034B9B68A34200D038BD02F082FEFBE7D2
:100FD000640E0020840E002010B500234FF0200284
:100FE000EFF3118482F31288BFF36F8F0CE0094B8B
:100FF0009A68D37B0133D3730020FFF705FE84F397
:101000001188BFF36F8F0123002BF0D002F061FE37
:1010100010BD00BF640E0020437B13F0080F2AD1DF
:1010200010B5044643F00802427323F0200242F058
:101030000802427312F0800F13D1A36813B1204647
:1010400002F05BFE04F1180002F040FF04F15800CA
:1010500002F0B3FE0120FFF7D7FD2046FFF720FB8B
:1010600010BD03F05F0343F00803437301460248D9
:1010700002F03BFEE1E77047840E002008B504480B
:1010800002F009FF00210846FFF754FD08BD00BF2C
:10109000800E0020F8B54FF02003EFF3118683F3A4
:1010A0001288BFF36F8F1D4CA1684B7B03F07F0349
:1010B0004B7304F12007384602F017FEA5686B7BDE
:1010C00063F07F036B73246ABC4208D1002406E0FE
:1010D00063686B602C601D60656017E000246CB174
:1010E0002146284602F0DDFD0028F1DC002CF6D078
:1010F0000A4B5B6A9C42F1D02468F0E7074B5A6ABE
:1011000003F1200129606A6015605D620120FFF72C
:101110007BFD3046FCF782F9F8BD00BF640E00206D
:101120002DE9F04150EA010338D004460E466FF035
:1011300001031B1A4FF0FF3262EB0102012B72F127
:1011400000022FDB6FF001052D1A4FF02003EFF3A3
:10115000118883F31288BFF36F8F144FB868144B54
:101160001860FFF769FEB868224633461149183007
:1011700000F0ECF8BA68537B43F010035373404619
:10118000FCF74CF902F002FF281A63EB0303012875
:1011900073F1000300DA0020BDE8F081FFF77AFF69
:1011A0000020F9E702F0F2FE0519CEE7640E0020F8
:1011B000900E00205D3D010008B5B1F1FF3F08BF72
:1011C000B0F1FF3F18D0FFF7ABFFC217510141EA62
:1011D000D06143011B1A61EB0201890041EA93715E
:1011E0009B001B1842EB0102D20042EA5372C3F388
:1011F000103343EA424008BD034B9868FFF7B2FE44
:101200004FF0FF30F7E700BF640E0020014B9868F5
:10121000704700BF640E002070B54FF02003EFF35D
:10122000118583F31288BFF36F8F2E46037B13F073
:10123000010F09D10446437B13F0080F0FD085F34B
:101240001188BFF36F8F09E085F31188BFF36F8FAB
:10125000404080F311884FF0040002DF70BDFFF7BB
:10126000DBFE084B9B68A34204D086F31188BFF3D2
:101270006F8FF3E7EFF30583002BF6D12846FCF7D9
:10128000CDF8F2E7640E002008B50648064A121AA7
:10129000064902F050FC064A0649074802F04BFC9A
:1012A00008BD00BF00000020F401002084470100B9
:1012B000000000008447010000000020034B186874
:1012C000984200D070470020FCE700BF2C010020AE
:1012D00030B1044A5268904201D000687047002043
:1012E000704700BF2C01002008B5044B1B680BB1F0
:1012F000002008BDFDF718FDFBE700BF9C0E002095
:1013000010B5FFF7DBFF0446FFF7EEFF7CB1236962
:1013100062691B1A62EBE072B3F1004F72F10001D7
:1013200008DA002A01DB184606E00023FBE76FF02D
:10133000004001E06FF00040034B1B6913B1834292
:1013400000DA184610BD00BF640E0020B3F1FF3F65
:1013500008BFB2F1FF3F7BD02DE9F047044692462B
:101360001D46816000234FF02002EFF3118782F3C6
:101370001288BFF36F8F26E01AF1010845F10009CA
:10138000FFF7B2FF18EB000349EBE07023616061E7
:101390003BE0521A66EB03030261436143686360FA
:1013A00020601C60446005E02A4B5A68236062603C
:1013B00014605C60FFF782FF84423AD087F31188A3
:1013C000BFF36F8F0123002B40D153466FF0010113
:1013D000B1EB0A014FF0FF3060EB0502002ACBDBD6
:1013E0001D4A116852685B1842EB05026FF001015B
:1013F000C91A60EB020308461A46012973F100037B
:1014000001DA0120002220616261FFF757FF002806
:10141000CAD00269466921696369914273EB060E7D
:10142000B7DB891A63EB060321616361FFF750FFA5
:10143000EDE7FFF765FF034618B1084A12698242DB
:10144000BCD000211846FDF73DFCB7E7BDE8F087AA
:10145000704700BF2C01002078030020640E00209C
:1014600070B50446FFF752FC4FF02003EFF31186EE
:1014700083F31288BFF36F8F284B1C6021E0284A4A
:10148000136851685B1941EBE571136051600022EC
:101490000023C4E90423204602F001FD86F31188ED
:1014A000BFF36F8FA368204698474FF02003EFF3F8
:1014B000118683F31288BFF36F8F184A13685B1B82
:1014C0001360FFF7FBFE044638B105694169134B11
:1014D0001A68D317AA428B41D1DA44B123696269F1
:1014E0000E4909685B1A62EBE172236162610C4A82
:1014F0000A4D2868136851681B1841EBE0711360AE
:10150000516000242C60FFF7FBFE2146FDF7DAFB5B
:1015100086F31188BFF36F8F70BD00BF9C0E002053
:101520007803002010B500224FF02003EFF3118460
:1015300083F31288BFF36F8F134611460CE0FFF759
:10154000D3FE074A13685168C31841EBE07184F376
:101550001188BFF36F8F0122002AF0D0184610BD0A
:101560007803002008B5024800F0F2F908BD00BF7A
:10157000CC46010010B50A4C23681BB1012323603F
:10158000002010BD00F0E6F80028F7D0013806284A
:1015900003D8044B53F8200010BD034810BD00BF12
:1015A000A00E0020FC460100FE8FFFFFBFF34F8F0F
:1015B0000549064BCA6802F4E0621343CB60BFF3EF
:1015C0004F8F00BFFDE700BF00ED00E00400FA050B
:1015D00010B4094B09490A4C4FF0FE32C3F80024FD
:1015E0004968C3F80424C3F80824C3F80C24002372
:1015F000C4F8003510BC084700B002503401002088
:1016000000A00250D0E90012014BC3E9001270475C
:101610003401002010B5044650B1636813F0685FD0
:1016200005D0064A934202D000232360626010BDB9
:10163000034B04485B689847EFE700BF2C5F5CA949
:101640003401002018470100C8B143680D4A934295
:1016500013D013F0685F0ED0012350E8002F194615
:1016600040E8001C9CF0000FF7D1012AF5D0BFF331
:101670005F8F0020704704487047044870476FF43C
:10168000E04070472C5F5CA9E98FFFFFEA8FFFFF06
:1016900080B14368094A93420AD013F0685F05D0CD
:1016A000BFF35F8F002303601846704704487047FC
:1016B000044870476FF4E040704700BF2C5F5CA99E
:1016C000E98FFFFFEA8FFFFF10B5044620B1044BFE
:1016D00063600022226010BD0248FFF779FFF6E741
:1016E0003A00003A4047010070B5D0E90023154C9C
:1016F000154D6360D0E90230C4E902302260134B1B
:10170000086818604868586088689860D1E90301E3
:10171000D8601961D5F8183113F0685F10D00C4902
:10172000C5F8BC110023C5E9453105F58A70C5F837
:10173000B8319047236805F5DC70BDE87040184764
:1017400070BD00BF44010020B80E002054010020ED
:101750002C5F5CA938B500F02FF820B1032400F00D
:1017600063F8204638BD00F031F898B900F0ACF8C5
:1017700098B90F4DD5F828391B0EF02B08D1D5F8A4
:10178000242A0C4B9A420AD0072400F017F8E6E707
:101790000624FAE70424204638BD0024F5E701209A
:1017A00000F092F804460028F7D1C5F80C0AD8E7F3
:1017B00000B002500000E020002070470020704779
:1017C000014BC3F8040A704700B0025010B511482D
:1017D00000F048F800B110BD0F4800F043F80028B1
:1017E000F9D10E4C204600F03DF80028F3D10C4B07
:1017F0000C481C6000F036F801460028EBD100F0E0
:101800002DF8044608B1204610BD00F03FF82046F0
:10181000FAE700BF8C010020800100208801002031
:10182000900100208401002008B5084800F024F849
:10183000074800F021F8074800F01EF8064800F0BD
:101840001BF8BDE8084000F00BB800BF8C01002079
:1018500080010020880100208401002000207047C2
:10186000704700BF08B5034B02681B6810689847B3
:10187000002008BD4401002008B5034B02685B68E6
:1018800010689847002008BD4401002070B5094C3D
:10189000094D2069AB68984718B1084B08485B6848
:1018A0009847084AEB68206900211160BDE8704044
:1018B000184700BF540100204401002034010020DB
:1018C00064470100B40E0020F8B51A4D1A4E0446C4
:1018D000B26828699047E8B9184F3B684CB1A3B18A
:1018E000012B19D0013B3B602869F3689847002021
:1018F000F8BD43B9124A0121C2F800151149D1F8C7
:101900001029002AFBD101333B60F368286998470E
:101910000020F8BD0C48F8BD0A4AD2F81039002B57
:10192000FBD1074A6FF07E40C2F80035FFF748FF51
:101930003B68D7E75401002044010020B40E00208A
:1019400000A0025000B00250E98FFFFF0020704756
:101950000FB400B583B004A951F8040B0191FAF754
:1019600059FE03B05DF804EB04B0704708B50446B7
:10197000084611461A46A047FFF748FCFBF7FAFF56
:1019800001F00701038B23F007030B430383704728
:101990002DE9F04106460F469046816821B10C685A
:1019A0003CB131B90C4604E00C4602E02346214626
:1019B0001C4669B14D6843463A463046A847002C5C
:1019C000F4D02368002BF2D0002CF0D12346EEE7B0
:1019D000BDE8F081038B13F0070303D102680AB15D
:1019E00003207047022B03D0012B06D00020704744
:1019F000428B002AF8D10420704703680BB1052000
:101A000070470020704710B504468C46038B002AAF
:101A100007DB03F007035A1F012A0ED9042B36D027
:101A200010BDD0E900018CE803000023236063604F
:101A300001212046FFF7A4FFF2E7D0E900018CE87E
:101A40000300002222606260062B1BD1DCF800300C
:101A500053B1628B013262831A461B68002BF7D0A8
:101A6000002AF5D11346F3E702212046FFF788FF4D
:101A70002046FFF7AFFF0028D2D0238B43F020038E
:101A80002383CDE700212046FFF77AFFF0E700210E
:101A9000FFF776FF2046FFF79DFF0028C0D0238B7D
:101AA00043F020032383BBE750B110B50C4651B17E
:101AB000081D00F0C4F810B9A368032B06D810BDA8
:101AC0006FF0150070476FF01500F8E76FF0150024
